:0404A8004100F80017
:10178700758BF0758DD89000F8E004F0E075F032B5
:0617970084E5F07001F092
:01179D002229
:0100090022D4
:01000A0022D3
:01000E0022CF
:1004AC0041003400604E00420000000000000000DB
:1004BC000000000000000000000000000000000030
:1004CC000000000000000000000000000000000020
:1004DC000000000000000000000000000000000010
:1004EC000000000000000000000000000000000000
:1004FC000000000000004C00100000000000000094
:10050C00000000000046002800000000000046002B
:10051C002E0000000000004C001C00000000000039
:10052C00000000000000410041004C0000000000F1
:10053C00000000000000000000012B00012C000155
:10054C0028000114000116000127060115084600B9
:10055C00A2000000000000011B0D0C0800000000B0
:10056C000000000000000000022900004200C8004A
:10057C00004C0035000000000000000000000000EE
:10058C00021D0000081F0000000000000000602099
:10059C0000A80000000000000000000000000000A7
:1005AC00000000000000000000000000000000003F
:1005BC00000044000C000000004A009800000000FD
:1005CC000000000000004800900000000000000047
:0A05DC0000041700000000011C00DD
:100DD8009000F27401F0E4A3F0FF12116FE49000A8
:100DE800F3F09000F2E0FFA3E0FEC39F50147434C8
:100DF8002EF582E43400F583E4F09000F3E004F08B
:100E080080E0E49000F3F09000F3E0FFC394065014
:100E180034EF25E02410F582E43400F583E4F0A3F0
:100E2800F074282FF582E43400F583E4F0EF25E030
:100E3800241CF582E43400F583E4F0A3F09000F379
:100E4800E004F080C27E157F747C007D98E4F5375D
:100E58007B0A120D1F7E177F9E7C007DA2753705C9
:0E0E68007B06120D1FE58124FEF528021514ED
:10061B00E4F532F533F534F535052AE52A70020594
:10062B0029E52B25E02408F80806E618700106C317
:10063B00E52A94F4E5299401400DE4F529F52A9077
:0F064B0000907402120B7C051EE51E7002051D47
:10065A00E4F536F536E53625E0241FF8E6FE08E629
:10066A00B51E0FE51DB5060A9000917401120B7CA8
:0B067A0080090536E536C3940440DA21
:10068500E51A2401F51AE43519F519E43518F518B4
:10069500E43517F51712000F051CE51C75F00A84E3
:1006A500E5F070089000927403120B7CE4F5327447
:1006B500412532F582E43400F583E0F53470030218
:1006C5000758E4F53374017E00A833088005C33369
:1006D500CE33CED8F9FFEF5534606DE5320485335E
:1006E500F0A4F53525E02400F582E43400F583E037
:1006F500FEA3E04E703EC2AFE535131313541FFF42
:100705002434F582E43400F583E0FEE5355407FD35
:100715007401A805088002C333D8FCFD4EF074416E
:100725002FF582E43400F583E0FFEDF4FEEF5EF093
:10073500D2AF8014E53525E02400F582E43400F5D8
:100745008374FFF5F01202060533E5336408600390
:0E0755000206CA0532E532640160030206B4F2
:010763002273
:1015D200EF4E604DC2AFE52B131313541FFD24349D
:1015E200F582E43400F583E0FCE52B5407FB74013B
:1015F200A803088002C333D8FCFBF45CF074412DCD
:10160200F582E43400F583E04BF0E52B25E024007D
:10161200F582E43400F583EEF0A3EFF0120F13D25B
:02162200AF22F5
:10120500A9287A007B00900010E0FFA3E09000F58C
:10121500CFF0A3EFF0E49000F4F09000F4E0FFC30A
:1012250094065036EF25E0241CF582E43400F5835E
:10123500A3E030E21D9000F4E025E02410F582E4FF
:101245003400F583E0FFA3E09000F5CFF0A3EFF0C5
:1012550080089000F4E004F080C09000F4E0B4064B
:1012650004C2AF80FC740129F9E43AFA9000F5E074
:10127500FEA3E0F5828E83E01201C0740129F9E432
:101285003AFA9000F5E0FEA3E0F5828E83A3E00232
:0212950001C096
:100D1F008E328F338C348D358B36120010AF37EF08
:100D2F003395E0FEEF25E0FFEE33FE741C2FF582C6
:100D3F0074003EF583A3E030E203020DD4C2AFE5A9
:100D4F003775F008120185FD3395E0FC74342DF5ED
:100D5F008274003CF583E0FDE53775F008120185DC
:100D6F00ACF07401A804088002C333D8FC4DF074B2
:100D7F00102FF58274003EF583E534F0A3E535F0CE
:100D8F00AD37ED3395E0FC742E2DF58274003CF5F4
:100D9F0083E536F0741D2FF58274003EF583E04431
:100DAF0004F0E532853582853483A3F0E53385354C
:100DBF0082853483F074282DF58274003CF583749A
:090DCF0002F0D2AF22C2AF80FC99
:10151400E49000F4F0A3F0A3F0A3F0C2AF9000F4C1
:10152400F0A37402F09000F4E0FEA3E0FFE4FCFDFD
:101534007B107A27F9F81202499000F6EEF0A3EF37
:10154400F0C3E49FFFE49E9000F6F0A3EFF0900058
:10155400F6E0FCA3E0FDECF514AF058F165389F01B
:0F15640043890185148C85168AD2A9D28CD2AF07
:011573002255
:03000600020F13D3
:10162400EF652B604AEF25E0241CF582E43400F5D5
:1016340083A3E030E439C2AFEF25E0241DF582E452
:101644003400F583E054EFF0EF131313541F2434E4
:10165400F582E43400F583E0FEEF5407FF7401A83B
:1016640007088002C333D8FC4EF0120F13D2AF2206
:10167400EF25E0241CF582E43400F583A3E030E494
:1016840036C2AFEF25E0241DF582E43400F583E093
:1016940054EFF0EF131313541F2434F582E4340091
:1016A400F583E0FEEF5407FF7401A807088002C326
:0816B40033D8FC4EF0D2AF2246
:1016BC00C2AFE52B25E0241DF582E43400F583E070
:1016CC004410F0E52B131313541F2434F582E43427
:1016DC0000F583E0FFE52B5407FE7401A806088093
:0E16EC0002C333D8FCF45FF0120F13D2AF220A
:10129700153815381538A838A60308A60208A60178
:0612A7001538153815385A
:1012AD00E5382403F8860308E6FA08E6F9A838A617
:1012BD000308A60208A601C2AFE52B1201C0E52B5B
:1012CD00131313541F2434F582E43400F583E0FF27
:1012DD00E52B5407FE7401A806088002C333D8FC21
:1012ED00F45FF0E52B25E0241DF582E43400F58351
:1012FD00E04420F0120F13D2AFA838860308E6FAA7
:10130D0008E6F9E5382403F8A60308A60208A601A5
:07131D00E5382406F5382233
:100C530015381538A838A60408A60515381538150B
:100C630038A838A60308A60208A601A838860308F0
:100C7300E6FA08E6F91201A7FDFF3395E0FEEF253A
:100C8300E0FFEE33FE741C2FF58274003EF583A360
:100C9300E020E503020D18ED75F008120185FF331E
:100CA30095E0FE74342FF58274003EF583C083C053
:100CB30082E0FFED75F008120185AEF07401A8061D
:100CC300088002C333D8FC4FD082D083F0A8388683
:100CD3000308E6FA08E6F91201A7FF3395E0FEEFF1
:100CE30025E0FFEE33FE741D2FF58274003EF5837D
:100CF300E054DFF0E5382403F8E6FF08E69000024D
:100D0300CF8FF012021CE5382405F8E6900001129B
:0C0D130001D2120F13E5382406F5382237
:100B7C00F01538A838E4F67C007D907B017A00797A
:010B8C000C5C
:100B8D0015381538A838A60408A6051538153815D2
:100B9D0038A838A60308A60208A601A838860308B7
:100BAD00E6FA08E6F91201A7FDFF3395E0FEEF2501
:100BBD00E0FFEE33FE741C2FF58274003EF583A327
:100BCD00E030E57BED75F008120185FF3395E0FE11
:100BDD0074342FF58274003EF583C083C082E0FF2C
:100BED00ED75F008120185AEF07401A806088002BB
:100BFD00C333D8FC4FD082D083F0A838860308E6E3
:100C0D00FA08E6F91201A7FF3395E0FEEF25E0FFA4
:100C1D00EE33FE741D2FF58274003EF583E054DF34
:100C2D00F0E5382403F8E6FF08E6900002CF8FF0D8
:100C3D0012021CE5382405F8E69000011201D2E5F8
:060C4D00382406F53822F0
:10097F00153815381538A838A60308A60208A60199
:06098F001538153815387B
:10099500E5382403F8860308E6FA08E6F9A838A638
:1009A5000308A60208A6011201A77015E52B04FF8E
:1009B500E5382403F8860308E6FA08E6F9EF12019C
:1009C500C0E5382403F8860308E6FA08E6F91201BB
:1009D500A7FF3395E0FEE52B2401FDE433FCEF6D25
:1009E5007002EE6C6079C2AFE52B131313541FFF31
:1009F5002434F582E43400F583E0FEE52B5407FD4D
:100A05007401A805088002C333D8FCF45EF0E52B19
:100A150025E0241DF582E43400F583E04440F0E947
:100A25002401F9E43AFA7E00E92FF9EE3AFA1201C7
:100A3500A7FF7401A805088002C333D8FC4F120133
:100A4500C0120F13A838860308E6FA08E6F9E53858
:100A55002403F8A60308A60208A601D2AF8000E584
:100A65002B04FFE5382403F8860308E6FA08E6F9BF
:040A7500EF1201C0BB
:070A7900E5382406F53822E0
:10076400153815381538A838A60308A60208A601B6
:0407740015381538E7
:10077800A838E4F6A83808F6A8380808860308E672
:10078800FA08E6F9E41201C0A838F6A838E6FFC36B
:100798009406400302086E0808860308E6FA08E68D
:1007A8002401F9E43AFAEF131313541F7E0029F9D0
:1007B800EE3AFA1201A77003020868FD3395E0FCCF
:1007C800A838E65407FF7401A807088005C333CE8C
:1007D80033CED8F9FFEE5CFEEF5D4E700302086879
:1007E800C2AFA838E6FF25E0241DF582E43400F501
:1007F80083E054BFF00808860308E6FA08E62401F7
:10080800F9E43AFAEF131313541FFF7C0029F9ECAB
:100818003AFA1201A7FEA838E65407FD7401A805A4
:10082800088002C333D8FCF45E1201C074342FF57B
:1008380082E43400F583E0FF7401A805088002C350
:1008480033D8FCFE4FF0A838E6FF131313541F24C7
:1008580034F582E43400F583E04EF0120F13D2AF82
:06086800A8380602079308
:07086E00E5382405F53822EE
:10087500153815381538A838A60308A60208A601A4
:0408850015381538D5
:10088900A838E4F6A83808F6A8380808860308E660
:10089900FA08E6F9E41201C0A838F6A838E6FFC359
:1008A900940640030209780808860308E6FA08E670
:1008B9002401F9E43AFAEF131313541F7E0029F9BE
:1008C900EE3AFA1201A77003020972FD3395E0FCB2
:1008D900A838E65407FF7401A807088005C333CE7A
:1008E90033CED8F9FFEE5CFEEF5D4E607CC2AFA857
:1008F90038E6FF25E0241DF582E43400F583E05451
:10090900BFF00808860308E6FA08E62401F9E43A84
:10091900FAEF131313541FFF7C0029F9EC3AFA126A
:1009290001A7FEA838E65407FD7401A8050880024E
:10093900C333D8FCF45E1201C074342FF582E43459
:1009490000F583E0FF7401A805088002C333D8FCD1
:10095900FE4FF0A838E6131313541F2434F582E42C
:0F0969003400F583E04EF0D2AFA838060208A4A0
:07097800E5382405F53822E3
:10116F00EF70030212047B007A00790012129715B8
:10117F0038A838E4F6FCFDFBFAF9120C531538A821
:10118F0038E4F6FCFDFBFAF9120B8D7B007A00793F
:10119F000012097F7B007A0079001207647B007AC6
:1011AF00007900120875120DD812061BE4FFFE120B
:1011BF0015D2121205121514120006E4FF1216248E
:1011CF001216BCE4FF121674E4FF121732E4FF127A
:1011DF00175D12000F120010120011E4FDFF120034
:1011EF00121214AC121574120A80E4F537FBFDFCD1
:0611FF00FFFE1213B022F6
:10179E00E49000F4F0E49000F4F09000F4E004F033
:0617AE00E0B4F0F680EF4C
:10175D00C2AFEF131313541F2434F582E43400F594
:10176D0083E0FEEF5407FF7401A807088002C3331E
:0A177D00D8FC4EF0120F13D2AF2279
:10173200C2AFEF131313541F2434F582E43400F5BF
:1017420083E0FEEF5407FF7401A807088002C33349
:0B175200D8FCF45EF0120F13D2AF229F
:1014AC00E4F536F536E53625E02408F8E6FE08E6E0
:1014BC00FF7C007D641201F4AC06AD07E41200CB96
:1014CC00E4FBFA79FA7843120029120104E5362577
:1014DC00E02435F582E43400F583EEF0A3EFF0E57B
:1014EC003625E02408F8E4F608F60536E536B406A9
:1014FC00B490003FE0FEA3E0FFC374649F9000C96A
:07150C00F0E49E9000C8F01E
:0115130022B5
:10157400E4F532F5337534127535347B017A00792C
:101584000C12129790000EE0FEA3E08E34F535E4C1
:10159400F533E5352533F582E43534F583E024FE6F
:1015A400600C14600E2402700D120A80800812145C
:1015B400AC80031216FAE5352533F582E43534F5AB
:0E15C40083E4F00533E533C3940840C680ADE0
:100A8000E4F536F536E53625E0241FF8E6FE08E6FF
:100A9000651E7003EE651D6003020B6F74C0253682
:100AA000F582E43400F583E020E003020B6F74A8C4
:100AB0002536F582E43400F583E06403706974C47C
:100AC0002536F582E43400F583E0D3940040497480
:100AD000C42536F582E43400F583E014F0E536757C
:100AE000F003A424ACF582E43400F583A3E0FAA378
:100AF000E0F91202F5E53625E024B8F582E4340089
:100B0000F583E0FEA3E0FFE53625E0241FF808EFBB
:100B100026F618EE36F6800F74C02536F582E434DA
:100B200000F583E054FEF074A82536F582E4340025
:100B3000F583E0B40239E53675F003A424ACF58200
:100B4000E43400F583A3E0FAA3E0F91202F5E536F8
:100B500025E024B8F582E43400F583E0FEA3E0FF4D
:100B6000E53625E0241FF808EF26F618EE36F605E0
:0B0B700036E536C394045003020A85EA
:010B7B002257
:0613B0008E328F338B36F4
:1013B600E4FF74C02FF582E43400F583E020E06595
:1013C600C2AFEF75F003A424ACF582E43400F583D4
:1013D600E4F0A3E532F0A3E533F0EF25E024B8F519
:1013E60082E43400F583ECF0A3EDF074A82FF582C7
:1013F600E43400F583E536F074C42FF582E4340056
:10140600F583E537F0EF25E0241FF808ED26F618FA
:10141600EC36F674C02FF582E43400F583E044011F
:10142600F0D2AF80060FEF64047087BF0404C2AF2A
:0214360080FC38
:011438002291
:1016FA00E4F536F536742E2536F582E43400F583A2
:10170A00E0FF24FEFE74282536F582E43400F583D2
:10171A00E0FDC39E4008EF9DFDAF3612001205366C
:07172A00E536C3940640CE32
:011731002295
:01000F0022CE
:0100100022CD
:0100110022CC
:0100120022CB
:1005E6004A00CA000000000000000000004A00D4D3
:1005F600000000000000000000004A00DE000000CD
:10060600000000000000004A00E8000000000000B2
:0406160000000000E0
:1017EF00E49000F2F0A3F07F057E001215D2B2B69E
:0217FF0080F573
:10180100E49000F2F0A3F07F0A7E001215D2B2C17B
:0218110080F560
:10181300E49000F2F0A3F07F0F7E001215D2B2C362
:0218230080F54E
:10182500E49000F2F0A3F07F147E001215D2B2C24C
:0218350080F53C
:1017B40053890F438910758BF0758DD8C28FD28EE3
:0517C400D2ABD2AF2200
:1017C900E49000F2F0A3F0E02464F09000F2E03439
:0217D90000F01E
:0117DB0022EB
:1017DC00E49000F2F0A3F0E02464F09000F2E03426
:0217EC0000F00B
:0117EE0022D8
:10143900C2B6C2C1C2C3C2C2120DD87E177FEF7C29
:10144900007DCA7537017B0A120D1F7E187F017C4A
:10145900007DD47537027B0A120D1F7E187F137C1D
:10146900007DDE7537037B0A120D1F7E187F257CF0
:10147900007DE87537047B0A120D1F1217B47E1719
:101489007FC97537647B027D0A7C001213B07E1711
:101499007FDC7537047B037D0A7C001213B01212BE
:0314A9000580FEBD
:100F1300C2AFC0E0C0F0C083C082C0D0C000C00177
:100F2300C002C003C004C005C006C00712001112EE
:100F33000466E52BB52C03020F8D1203BFE58195E3
:100F43001BF808A91B1203E179021203F7E5819547
:100F53001B8528F095F0F989F0A828081203E1A968
:100F6300F0120422C0E0E52CF52BD0E01204441269
:100F730003F7A828E429251B28F581081203EC129E
:100F830003BFA91B1203EC188881D007D006D00534
:100F9300D004D003D002D001D000D0D0D082D083EF
:070FA300D0F0D0E0D2AF2234
:03000300020FAA3F
:03000B00020E766C
:0300130002104197
:03001B00020316C7
:030023000210D8F0
:100E7600C2AF85148C85168AC0E0C0F0C083C082DC
:100E8600C0D0C000C001C002C003C004C005C00677
:100E9600C00712061B120466E52BB52C03020EF6DC
:100EA6001203BFE581951BF808A91B1203E179021D
:100EB6001203F7E581951B8528F095F0F989F0A8CE
:100EC60028081203E1A9F0120422C0E0E52CF52B54
:100ED600D0E01204441203F7A828E429251B28F5BC
:100EE60081081203EC1203BFA91B1203EC188881B8
:100EF600D007D006D005D004D003D002D001D00050
:0D0F0600D0D0D082D083D0F0D0E0D2AF3276
:100FAA00C2AFC0E0C0F0C083C082C0D0C000C001E0
:100FBA00C002C003C004C005C006C007120009125F
:100FCA000466E52BB52C030210241203BFE58195B4
:100FDA001BF808A91B1203E179021203F7E58195B0
:100FEA001B8528F095F0F989F0A828081203E1A9D1
:100FFA00F0120422C0E0E52CF52BD0E012044412D2
:10100A0003F7A828E429251B28F581081203EC1206
:10101A0003BFA91B1203EC188881D007D006D0059C
:10102A00D004D003D002D001D000D0D0D082D08357
:07103A00D0F0D0E0D2AF328C
:10104100C2AFC0E0C0F0C083C082C0D0C000C00148
:10105100C002C003C004C005C006C00712000A12C6
:101061000466E52BB52C030210BB1203BFE5819585
:101071001BF808A91B1203E179021203F7E5819518
:101081001B8528F095F0F989F0A828081203E1A939
:10109100F0120422C0E0E52CF52BD0E0120444123A
:1010A10003F7A828E429251B28F581081203EC126F
:1010B10003BFA91B1203EC188881D007D006D00505
:1010C100D004D003D002D001D000D0D0D082D083C0
:0710D100D0F0D0E0D2AF32F5
:1010D800C2AFC0E0C0F0C083C082C0D0C000C001B1
:1010E800C002C003C004C005C006C00712000E122B
:1010F8000466E52BB52C030211521203BFE5819556
:101108001BF808A91B1203E179021203F7E5819580
:101118001B8528F095F0F989F0A828081203E1A9A1
:10112800F0120422C0E0E52CF52BD0E012044412A2
:1011380003F7A828E429251B28F581081203EC12D7
:1011480003BFA91B1203EC188881D007D006D0056D
:10115800D004D003D002D001D000D0D0D082D08328
:07116800D0F0D0E0D2AF325D
:10031600C2AFC0E0C0F0C083C082C0D0C000C00180
:10032600C002C003C004C005C006C007121787126A
:100336000466E52BB52C030203901203BFE58195F5
:100346001BF808A91B1203E179021203F7E5819550
:100356001B8528F095F0F989F0A828081203E1A971
:10036600F0120422C0E0E52CF52BD0E01204441272
:1003760003F7A828E429251B28F581081203EC12A7
:1003860003BFA91B1203EC188881D007D006D0053D
:10039600D004D003D002D001D000D0D0D082D083F8
:1003A600D0F0D0E0D2AF32C0E0C3E5822507F582B7
:1003B600E5833506F583D0E022C0E0C0F0C006C074
:1003C60007E51B852BF0A485F006F5079000421281
:1003D60003ADD007D006D0F0D0E022C0E0E6F008AA
:1003E600A3D9FAD0E022C0E0E0F608A3D9FAD0E01B
:1003F60022C0E0C0F0C006C007900010E52B75F0E3
:1004060002A4AEF0FF1203ADE0C0E0A3E0C0E0D06E
:1004160082D083D007D006D0F0D0E022C083C0823D
:10042600C0E0C006C007900028E52B7E00FF12033F
:02043600ADE92E
:10043800F0D007D006D0E0D082D08322C083C0821B
:10044800C0E0C006C007900028E52B7E00FF12031D
:10045800ADE0F9D007D006D0E0D082D08322C082A8
:10046800C083C000C001C0E0C0F0900034A827E8F5
:100478008515F08404F8E06014C3A915134002D967
:10048800FBE515C39988F0A4F52C02049BD804A3B6
:1004980002047ED0F0D0E0D001D000D083D08222F8
:1000260002017AEC5D046005E85904700302017070
:1000360012013B580460F6EC4860F2EC7004FDFED9
:10004600FF22C860DB2481C85009C39860025006AD
:100056000201779850CAF582E9294B4A7005AB82AE
:1000660002016675F0007C1A7880C3EF9BEE9AED6C
:1000760099400DC3EF9BFFEE9AFEED99FDE842F025
:10008600DC23ACF0D0E0FFD0E0FED0E0FDAB822078
:10009600E7101BEB60BAEC2CFCEF33FFEE33FEED02
:1000A60033FD020152E803F830E705C0F075F000B1
:1000B600EF2FFFEE33FEED33FD40B830E7C280AAE6
:1000C60075F020800E75F010800575F0087D007EB5
:1000D600007F003392D530D503120298EC334010DE
:1000E600EF33FFEE33FEED33FDEC33FCD5F0ED22BE
:0E00F600E5F0247EA2D513CC92E7CDCEFF22FA
:10010400EDD2E7CD33EC3392D524814006E4FFFEF3
:10011400FDFC22FCE4CFCECDCC24E0501174FF8052
:10012400EDC3CC13CCCD13CDCE13CECF13CF0470EF
:07013400F030D5DE02029855
:10013B00E9D2E7C933E833F892D5EDD2E7CD33EC0A
:07014B0033FC5002B2D52283
:10015200EC30E7100FBF000C0EBE00080DBD00040E
:100162000BEB6014A2D5EB13FCED92E7FD2274FFBA
:10017200FCFDFEFF22E480F8A2D574FF13FC7D8013
:03018200E480EF27
:03000000021324C4
:0C132400787FE4F6D8FD75813802136B69
:10018500C2D530F707B2D563F0FF05F030E70CB202
:10019500D5F4048463F0FF05F080018430D502F4C2
:0201A500042232
:1001A700BB010689828A83E0225002E722BBFE0256
:0901B700E32289828A83E4932289
:1001C000BB010689828A83F0225002F722BBFE011E
:0201D000F32218
:1001D200F8BB010DE58229F582E5833AF583E8F063
:1001E200225006E92582C8F622BBFE05E92582C80F
:0201F200F222F7
:1001F400EF8DF0A4A8F0CF8CF0A428CE8DF0A42E1F
:02020400FE22D8
:10020600C5F0F8A3E028F0C5F0F8E5821582700283
:060216001583E038F02220
:10021C00F8BB0111E58229F582E5833AF583E8F014
:10022C00E5F0A3F0225009E92582C8F608A6F022D1
:0D023C00BBFE09E92582C8F2E5F008F222B8
:10024900E88FF0A4CC8BF0A42CFCE98EF0A42CFC54
:100259008AF0EDA42CFCEA8EF0A4CDA8F08BF0A4D2
:100269002DCC3825F0FDE98FF0A42CCD35F0FCEB31
:100279008EF0A4FEA9F0EB8FF0A4CFC5F02ECD39F6
:0F028900FEE43CFCEAA42DCE35F0FDE43CFC2263
:0E029800C3E49FFFE49EFEE49DFDE49CFC2277
:1002A600BB011A89828A83D0F0D0E0F8D0E0F9D079
:1002B600E0FAD0E0FBE8C0E0C0F00203045016E923
:1002C600F8D083D082D0E0F9D0E0FAD0E0FBC0824B
:1002D600C0830202FBBBFE16E9F8D083D082D0E0D1
:0F02E600F9D0E0FAD0E0FBC082C08302030D2202
:0602F5008A838982E47394
:10133000021439E493A3F8E493A34003F68001F286
:1013400008DFF48029E493A3F85407240CC8C333BE
:10135000C4540F4420C8834004F456800146F6DF8D
:10136000E4800B01020408102040809004A8E47E71
:10137000019360BCA3FF543F30E509541FFEE49382
:10138000A360010ECF54C025E060A840B8E493A349
:10139000FAE493A3F8E493A3C8C582C8CAC583CA74
:1013A000F0A3C8C582C8CAC583CADFE9DEE780BE2C
:01061A0000DF
:0902FB00EBF608EAF608E9F62228
:09030400EBF0A3EAF0A3E9F022FA
:09030D00EBF208EAF208E9F22221
:00000001FF
